{
  "transactions": [
    {
      "hash": "0xfca66ece526d07f129db933e3af4fb9671089276ca8b30c0f5bbd839c2b72586",
      "transactionType": "CALL",
      "contractName": null,
      "contractAddress": "0xd792882ccdd45f557f64da10fce4b116f7b3023f",
      "function": "mintNft(string)",
      "arguments": [
        "ipfs://bafybeig37ioir76s7mg5oobetncojcm3c3hxasyd4rvid4jqhy4gkaheg4/?filename=0-PUG.json"
      ],
      "transaction": {
        "from": "0x109e18e4c1a1cae798f1ef6db6a6fc0dec8a9341",
        "to": "0xd792882ccdd45f557f64da10fce4b116f7b3023f",
        "gas": "0x3da7f",
        "value": "0x0",
        "input": "0xda86f4a900000000000000000000000000000000000000000000000000000000000000200000000000000000000000000000000000000000000000000000000000000057697066733a2f2f62616679626569673337696f6972373673376d67356f6f6265746e636f6a636d3363336878617379643472766964346a71687934676b61686567342f3f66696c656e616d653d302d5055472e6a736f6e000000000000000000",
        "nonce": "0x1f",
        "chainId": "0xaa36a7"
      },
      "additionalContracts": [],
      "isFixedGasLimit": false
    }
  ],
  "receipts": [
    {
      "status": "0x1",
      "cumulativeGasUsed": "0xc48185",
      "logs": [
        {
          "address": "0xd792882ccdd45f557f64da10fce4b116f7b3023f",
          "topics": [
            "0xddf252ad1be2c89b69c2b068fc378daa952ba7f163c4a11628f55a4df523b3ef",
            "0x0000000000000000000000000000000000000000000000000000000000000000",
            "0x000000000000000000000000109e18e4c1a1cae798f1ef6db6a6fc0dec8a9341",
            "0x0000000000000000000000000000000000000000000000000000000000000000"
          ],
          "data": "0x",
          "blockHash": "0x43cc1717e5b93b49d07566063775b349251189a9c9ab7e16bf78754287e0688a",
          "blockNumber": "0x80c5df",
          "blockTimestamp": "0x6839aa44",
          "transactionHash": "0xfca66ece526d07f129db933e3af4fb9671089276ca8b30c0f5bbd839c2b72586",
          "transactionIndex": "0x77",
          "logIndex": "0xd1",
          "removed": false
        }
      ],
      "logsBloom": "0x00000000000000000000000000000000000000000000000000000002000000000000000000000000000000000000000000000000000000000000000000000000000000000000000000000008000000000000000000000000000000000000000000000000020000000004000000000800000000000000000000000010000010000000000002000000000000000000000000000000000000000000000000000000000000000000000000000000800000000000000000020000000000000000000000000002000000000000000000000000000000000000000000000000000020000000000000000000000000000000000000000000000000000000000000000000",
      "type": "0x2",
      "transactionHash": "0xfca66ece526d07f129db933e3af4fb9671089276ca8b30c0f5bbd839c2b72586",
      "transactionIndex": "0x77",
      "blockHash": "0x43cc1717e5b93b49d07566063775b349251189a9c9ab7e16bf78754287e0688a",
      "blockNumber": "0x80c5df",
      "gasUsed": "0x2ca35",
      "effectiveGasPrice": "0x28237f",
      "from": "0x109e18e4c1a1cae798f1ef6db6a6fc0dec8a9341",
      "to": "0xd792882ccdd45f557f64da10fce4b116f7b3023f",
      "contractAddress": null
    }
  ],
  "libraries": [],
  "pending": [],
  "returns": {},
  "timestamp": 1748609605,
  "chain": 11155111,
  "commit": null
}